{
  "contractName": "Adder",
  "abi": [
    {
      "inputs": [
        {
          "internalType": "string",
          "name": "_apiBaseUrl",
          "type": "string"
        }
      ],
      "stateMutability": "nonpayable",
      "type": "constructor"
    },
    {
      "anonymous": false,
      "inputs": [
        {
          "indexed": false,
          "internalType": "string",
          "name": "_message",
          "type": "string"
        }
      ],
      "name": "LogProvableQuery",
      "type": "event"
    },
    {
      "anonymous": false,
      "inputs": [
        {
          "indexed": false,
          "internalType": "uint256",
          "name": "_value",
          "type": "uint256"
        }
      ],
      "name": "Prediction",
      "type": "event"
    },
    {
      "inputs": [
        {
          "internalType": "bytes",
          "name": "",
          "type": "bytes"
        }
      ],
      "name": "predictions",
      "outputs": [
        {
          "internalType": "uint256",
          "name": "",
          "type": "uint256"
        }
      ],
      "stateMutability": "view",
      "type": "function",
      "constant": true
    },
    {
      "inputs": [
        {
          "internalType": "uint256",
          "name": "_x",
          "type": "uint256"
        },
        {
          "internalType": "uint256",
          "name": "_y",
          "type": "uint256"
        }
      ],
      "name": "requestPrediction",
      "outputs": [],
      "stateMutability": "payable",
      "type": "function",
      "payable": true
    },
    {
      "inputs": [
        {
          "internalType": "uint256",
          "name": "_x",
          "type": "uint256"
        },
        {
          "internalType": "uint256",
          "name": "_y",
          "type": "uint256"
        }
      ],
      "name": "getPrediction",
      "outputs": [
        {
          "internalType": "int256",
          "name": "",
          "type": "int256"
        }
      ],
      "stateMutability": "nonpayable",
      "type": "function"
    },
    {
      "inputs": [
        {
          "internalType": "bytes32",
          "name": "_myid",
          "type": "bytes32"
        },
        {
          "internalType": "string",
          "name": "_result",
          "type": "string"
        }
      ],
      "name": "__callback",
      "outputs": [],
      "stateMutability": "nonpayable",
      "type": "function"
    },
    {
      "inputs": [
        {
          "internalType": "bytes32",
          "name": "_myid",
          "type": "bytes32"
        },
        {
          "internalType": "string",
          "name": "_result",
          "type": "string"
        },
        {
          "internalType": "bytes",
          "name": "_proof",
          "type": "bytes"
        }
      ],
      "name": "__callback",
      "outputs": [],
      "stateMutability": "nonpayable",
      "type": "function"
    }
  ],
  "bytecode": "0x60806040523480156200001157600080fd5b5060405162002a0b38038062002a0b833981810160405260208110156200003757600080fd5b81019080805160405193929190846401000000008211156200005857600080fd5b838201915060208201858111156200006f57600080fd5b82518660018202830111640100000000821117156200008d57600080fd5b8083526020830192505050908051906020019080838360005b83811015620000c3578082015181840152602081019050620000a6565b50505050905090810190601f168015620000f15780820380516001836020036101000a031916815260200191505b5060405250505080600690805190602001906200011092919062000118565b5050620001be565b828054600181600116156101000203166002900490600052602060002090601f016020900481019282601f106200015b57805160ff19168380011785556200018c565b828001600101855582156200018c579182015b828111156200018b5782518255916020019190600101906200016e565b5b5090506200019b91906200019f565b5090565b5b80821115620001ba576000816000905550600101620001a0565b5090565b61283d80620001ce6000396000f3fe60806040526004361061004a5760003560e01c80631b0a102c1461004f57806327dc297e146100a857806338bbfa501461017a578063d0a6b3b5146102e3578063decf6cf8146103bf575b600080fd5b34801561005b57600080fd5b506100926004803603604081101561007257600080fd5b8101908080359060200190929190803590602001909291905050506103f7565b6040518082815260200191505060405180910390f35b3480156100b457600080fd5b50610178600480360360408110156100cb57600080fd5b8101908080359060200190929190803590602001906401000000008111156100f257600080fd5b82018360208201111561010457600080fd5b8035906020019184600183028401116401000000008311171561012657600080fd5b91908080601f016020809104026020016040519081016040528093929190818152602001838380828437600081840152601f19601f820116905080830192505050505050509192919290505050610572565b005b34801561018657600080fd5b506102e16004803603606081101561019d57600080fd5b8101908080359060200190929190803590602001906401000000008111156101c457600080fd5b8201836020820111156101d657600080fd5b803590602001918460018302840111640100000000831117156101f857600080fd5b91908080601f016020809104026020016040519081016040528093929190818152602001838380828437600081840152601f19601f8201169050808301925050505050505091929192908035906020019064010000000081111561025b57600080fd5b82018360208201111561026d57600080fd5b8035906020019184600183028401116401000000008311171561028f57600080fd5b91908080601f016020809104026020016040519081016040528093929190818152602001838380828437600081840152601f19601f82011690508083019250505050505050919291929050505061096f565b005b3480156102ef57600080fd5b506103a96004803603602081101561030657600080fd5b810190808035906020019064010000000081111561032357600080fd5b82018360208201111561033557600080fd5b8035906020019184600183028401116401000000008311171561035757600080fd5b91908080601f016020809104026020016040519081016040528093929190818152602001838380828437600081840152601f19601f820116905080830192505050505050509192919290505050610992565b6040518082815260200191505060405180910390f35b6103f5600480360360408110156103d557600080fd5b8101908080359060200190929190803590602001909291905050506109c0565b005b6000806005848460405160200180838152602001828152602001925050506040516020818303038152906040526040518082805190602001908083835b602083106104575780518252602082019150602081019050602083039250610434565b6001836020036101000a038019825116818451168082178552505050505050905001915050908152602001604051809103902054905060006005848660405160200180838152602001828152602001925050506040516020818303038152906040526040518082805190602001908083835b602083106104ec57805182526020820191506020810190506020830392506104c9565b6001836020036101000a03801982511681845116808217855250505050505090500191505090815260200160405180910390205490506000821461053457819250505061056c565b6000811461054657809250505061056c565b7fffffffffffffffffffffffffffffffffffffffffffffffffffffffffffffffff925050505b92915050565b61057a610c85565b73ffffffffffffffffffffffffffffffffffffffff163373ffffffffffffffffffffffffffffffffffffffff16146105b157600080fd5b7fe2bed2114918966da1b748a9e30ae25a4b580042b04b556aedf76f004e7fb8ee6105f46040518060600160405280602981526020016127946029913983610fa2565b6040518080602001828103825283818151815260200191508051906020019080838360005b83811015610634578082015181840152602081019050610619565b50505050905090810190601f1680156106615780820380516001836020036101000a031916815260200191505b509250505060405180910390a16106766126a7565b61067f82610fe6565b90506106896126a7565b6106c76040518060400160405280600181526020017f2c00000000000000000000000000000000000000000000000000000000000000815250610fe6565b905060606106de828461101490919063ffffffff16565b67ffffffffffffffff811180156106f457600080fd5b506040519080825280602002602001820160405280156107235781602001602082028036833780820191505090505b50905060005b815181101561077a5761075561075061074b858761108990919063ffffffff16565b6110a3565b61111c565b82828151811061076157fe5b6020026020010181815250508080600101915050610729565b508060028151811061078857fe5b602002602001015160058260008151811061079f57fe5b6020026020010151836001815181106107b457fe5b602002602001015160405160200180838152602001828152602001925050506040516020818303038152906040526040518082805190602001908083835b6020831061081557805182526020820191506020810190506020830392506107f2565b6001836020036101000a0380198251168184511680821785525050505050509050019150509081526020016040518091039020819055508060028151811061085957fe5b602002602001015160058260018151811061087057fe5b60200260200101518360008151811061088557fe5b602002602001015160405160200180838152602001828152602001925050506040516020818303038152906040526040518082805190602001908083835b602083106108e657805182526020820191506020810190506020830392506108c3565b6001836020036101000a0380198251168184511680821785525050505050509050019150509081526020016040518091039020819055507f8b1fe36f3fd7abd96bbd8c6b84699c212a99354d417c76a66a9a7f6dec6ae6e28160028151811061094b57fe5b60200260200101516040518082815260200191505060405180910390a15050505050565b6000801b600360008060001b815260200190815260200160002081905550505050565b6005818051602081018201805184825260208301602085012081835280955050505050506000915090505481565b476109ff6040518060400160405280600381526020017f55524c0000000000000000000000000000000000000000000000000000000000815250611130565b1115610a55577fe2bed2114918966da1b748a9e30ae25a4b580042b04b556aedf76f004e7fb8ee60405180806020018281038252604b8152602001806127bd604b913960600191505060405180910390a1610c81565b6060610b7860068054600181600116156101000203166002900480601f016020809104026020016040519081016040528092919081815260200182805460018160011615610100020316600290048015610af05780601f10610ac557610100808354040283529160200191610af0565b820191906000526020600020905b815481529060010190602001808311610ad357829003601f168201915b50505050506040518060400160405280600581526020017f2f6164642f000000000000000000000000000000000000000000000000000000815250610b34866114bf565b6040518060400160405280600181526020017f2f00000000000000000000000000000000000000000000000000000000000000815250610b73876114bf565b611603565b90506060610bf16040518060400160405280600581526020017f6a736f6e28000000000000000000000000000000000000000000000000000000815250836040518060400160405280600e81526020017f292e737472696e67526573756c740000000000000000000000000000000000008152506118d5565b9050610c326040518060400160405280600381526020017f55524c00000000000000000000000000000000000000000000000000000000008152508261190b565b507fe2bed2114918966da1b748a9e30ae25a4b580042b04b556aedf76f004e7fb8ee60405180806020018281038252603581526020018061275f6035913960400191505060405180910390a150505b5050565b60008073ffffffffffffffffffffffffffffffffffffffff16600160009054906101000a900473ffffffffffffffffffffffffffffffffffffffff1673ffffffffffffffffffffffffffffffffffffffff161480610d0d57506000610d0b600160009054906101000a900473ffffffffffffffffffffffffffffffffffffffff16611e4f565b145b15610d1e57610d1c6000611e5a565b505b600160009054906101000a900473ffffffffffffffffffffffffffffffffffffffff1673ffffffffffffffffffffffffffffffffffffffff166338cc48316040518163ffffffff1660e01b8152600401602060405180830381600087803b158015610d8857600080fd5b505af1158015610d9c573d6000803e3d6000fd5b505050506040513d6020811015610db257600080fd5b810190808051906020019092919050505073ffffffffffffffffffffffffffffffffffffffff1660008054906101000a900473ffffffffffffffffffffffffffffffffffffffff1673ffffffffffffffffffffffffffffffffffffffff1614610efa57600160009054906101000a900473ffffffffffffffffffffffffffffffffffffffff1673ffffffffffffffffffffffffffffffffffffffff166338cc48316040518163ffffffff1660e01b8152600401602060405180830381600087803b158015610e7f57600080fd5b505af1158015610e93573d6000803e3d6000fd5b505050506040513d6020811015610ea957600080fd5b81019080805190602001909291905050506000806101000a81548173ffffffffffffffffffffffffffffffffffffffff021916908373ffffffffffffffffffffffffffffffffffffffff1602179055505b60008054906101000a900473ffffffffffffffffffffffffffffffffffffffff1673ffffffffffffffffffffffffffffffffffffffff1663c281d19e6040518163ffffffff1660e01b8152600401602060405180830381600087803b158015610f6257600080fd5b505af1158015610f76573d6000803e3d6000fd5b505050506040513d6020811015610f8c57600080fd5b8101908080519060200190929190505050905090565b6060610fde8383604051806020016040528060008152506040518060200160405280600081525060405180602001604052806000815250611603565b905092915050565b610fee6126a7565b600060208301905060405180604001604052808451815260200182815250915050919050565b60008082600001516110388560000151866020015186600001518760200151611e6b565b0190505b83600001518460200151018111611082578180600101925050826000015161107a856020015183038660000151038386600001518760200151611e6b565b01905061103c565b5092915050565b6110916126a7565b61109c838383611f46565b5092915050565b606080826000015167ffffffffffffffff811180156110c157600080fd5b506040519080825280601f01601f1916602001820160405280156110f45781602001600182028036833780820191505090505b50905060006020820190506111128185602001518660000151611fe4565b8192505050919050565b600061112982600061202d565b9050919050565b60008073ffffffffffffffffffffffffffffffffffffffff16600160009054906101000a900473ffffffffffffffffffffffffffffffffffffffff1673ffffffffffffffffffffffffffffffffffffffff1614806111b8575060006111b6600160009054906101000a900473ffffffffffffffffffffffffffffffffffffffff16611e4f565b145b156111c9576111c76000611e5a565b505b600160009054906101000a900473ffffffffffffffffffffffffffffffffffffffff1673ffffffffffffffffffffffffffffffffffffffff166338cc48316040518163ffffffff1660e01b8152600401602060405180830381600087803b15801561123357600080fd5b505af1158015611247573d6000803e3d6000fd5b505050506040513d602081101561125d57600080fd5b810190808051906020019092919050505073ffffffffffffffffffffffffffffffffffffffff1660008054906101000a900473ffffffffffffffffffffffffffffffffffffffff1673ffffffffffffffffffffffffffffffffffffffff16146113a557600160009054906101000a900473ffffffffffffffffffffffffffffffffffffffff1673ffffffffffffffffffffffffffffffffffffffff166338cc48316040518163ffffffff1660e01b8152600401602060405180830381600087803b15801561132a57600080fd5b505af115801561133e573d6000803e3d6000fd5b505050506040513d602081101561135457600080fd5b81019080805190602001909291905050506000806101000a81548173ffffffffffffffffffffffffffffffffffffffff021916908373ffffffffffffffffffffffffffffffffffffffff1602179055505b60008054906101000a900473ffffffffffffffffffffffffffffffffffffffff1673ffffffffffffffffffffffffffffffffffffffff1663524f3889836040518263ffffffff1660e01b81526004018080602001828103825283818151815260200191508051906020019080838360005b83811015611431578082015181840152602081019050611416565b50505050905090810190601f16801561145e5780820380516001836020036101000a031916815260200191505b5092505050602060405180830381600087803b15801561147d57600080fd5b505af1158015611491573d6000803e3d6000fd5b505050506040513d60208110156114a757600080fd5b81019080805190602001909291905050509050919050565b60606000821415611507576040518060400160405280600181526020017f300000000000000000000000000000000000000000000000000000000000000081525090506115fe565b600082905060005b60008214611531578080600101915050600a828161152957fe5b04915061150f565b60608167ffffffffffffffff8111801561154a57600080fd5b506040519080825280601f01601f19166020018201604052801561157d5781602001600182028036833780820191505090505b50905060006001830390505b600086146115f657600a868161159b57fe5b0660300160f81b828280600190039350815181106115b557fe5b60200101907effffffffffffffffffffffffffffffffffffffffffffffffffffffffffffff1916908160001a905350600a86816115ee57fe5b049550611589565b819450505050505b919050565b60608086905060608690506060869050606086905060608690506060815183518551875189510101010167ffffffffffffffff8111801561164357600080fd5b506040519080825280601f01601f1916602001820160405280156116765781602001600182028036833780820191505090505b5090506060819050600080600090505b88518110156116f45788818151811061169b57fe5b602001015160f81c60f81b8383806001019450815181106116b857fe5b60200101907effffffffffffffffffffffffffffffffffffffffffffffffffffffffffffff1916908160001a9053508080600101915050611686565b600090505b87518110156117675787818151811061170e57fe5b602001015160f81c60f81b83838060010194508151811061172b57fe5b60200101907effffffffffffffffffffffffffffffffffffffffffffffffffffffffffffff1916908160001a90535080806001019150506116f9565b600090505b86518110156117da5786818151811061178157fe5b602001015160f81c60f81b83838060010194508151811061179e57fe5b60200101907effffffffffffffffffffffffffffffffffffffffffffffffffffffffffffff1916908160001a905350808060010191505061176c565b600090505b855181101561184d578581815181106117f457fe5b602001015160f81c60f81b83838060010194508151811061181157fe5b60200101907effffffffffffffffffffffffffffffffffffffffffffffffffffffffffffff1916908160001a90535080806001019150506117df565b600090505b84518110156118c05784818151811061186757fe5b602001015160f81c60f81b83838060010194508151811061188457fe5b60200101907effffffffffffffffffffffffffffffffffffffffffffffffffffffffffffff1916908160001a9053508080600101915050611852565b82995050505050505050505095945050505050565b60606119028484846040518060200160405280600081525060405180602001604052806000815250611603565b90509392505050565b60008073ffffffffffffffffffffffffffffffffffffffff16600160009054906101000a900473ffffffffffffffffffffffffffffffffffffffff1673ffffffffffffffffffffffffffffffffffffffff16148061199357506000611991600160009054906101000a900473ffffffffffffffffffffffffffffffffffffffff16611e4f565b145b156119a4576119a26000611e5a565b505b600160009054906101000a900473ffffffffffffffffffffffffffffffffffffffff1673ffffffffffffffffffffffffffffffffffffffff166338cc48316040518163ffffffff1660e01b8152600401602060405180830381600087803b158015611a0e57600080fd5b505af1158015611a22573d6000803e3d6000fd5b505050506040513d6020811015611a3857600080fd5b810190808051906020019092919050505073ffffffffffffffffffffffffffffffffffffffff1660008054906101000a900473ffffffffffffffffffffffffffffffffffffffff1673ffffffffffffffffffffffffffffffffffffffff1614611b8057600160009054906101000a900473ffffffffffffffffffffffffffffffffffffffff1673ffffffffffffffffffffffffffffffffffffffff166338cc48316040518163ffffffff1660e01b8152600401602060405180830381600087803b158015611b0557600080fd5b505af1158015611b19573d6000803e3d6000fd5b505050506040513d6020811015611b2f57600080fd5b81019080805190602001909291905050506000806101000a81548173ffffffffffffffffffffffffffffffffffffffff021916908373ffffffffffffffffffffffffffffffffffffffff1602179055505b60008060009054906101000a900473ffffffffffffffffffffffffffffffffffffffff1673ffffffffffffffffffffffffffffffffffffffff1663524f3889856040518263ffffffff1660e01b81526004018080602001828103825283818151815260200191508051906020019080838360005b83811015611c0f578082015181840152602081019050611bf4565b50505050905090810190601f168015611c3c5780820380516001836020036101000a031916815260200191505b5092505050602060405180830381600087803b158015611c5b57600080fd5b505af1158015611c6f573d6000803e3d6000fd5b505050506040513d6020811015611c8557600080fd5b8101908080519060200190929190505050905062030d403a02670de0b6b3a764000001811115611cbb576000801b915050611e49565b60008054906101000a900473ffffffffffffffffffffffffffffffffffffffff1673ffffffffffffffffffffffffffffffffffffffff1663adf59f9982600087876040518563ffffffff1660e01b8152600401808481526020018060200180602001838103835285818151815260200191508051906020019080838360005b83811015611d55578082015181840152602081019050611d3a565b50505050905090810190601f168015611d825780820380516001836020036101000a031916815260200191505b50838103825284818151815260200191508051906020019080838360005b83811015611dbb578082015181840152602081019050611da0565b50505050905090810190601f168015611de85780820380516001836020036101000a031916815260200191505b50955050505050506020604051808303818588803b158015611e0957600080fd5b505af1158015611e1d573d6000803e3d6000fd5b50505050506040513d6020811015611e3457600080fd5b81019080805190602001909291905050509150505b92915050565b6000813b9050919050565b6000611e64612136565b9050919050565b6000808490506000868511611f365760208511611ef057600060018660200360080260020a031960001b905060008186511690506000878a8a0103905060008386511690505b828114611ee257818610611ecf578a8a019650505050505050611f3e565b8580600101965050838651169050611eb1565b859650505050505050611f3e565b60008585209050600091505b8588038211611f34576000868420905080821415611f205783945050505050611f3e565b600184019350508180600101925050611efc565b505b868601925050505b949350505050565b611f4e6126a7565b6000611f6c8560000151866020015186600001518760200151611e6b565b90508460200151836020018181525050846020015181038360000181815250508460000151856020015101811415611fae576000856000018181525050611fd9565b8360000151836000015101856000018181510391508181525050836000015181018560200181815250505b829150509392505050565b5b602081106120085781518352602083019250602082019150602081039050611fe5565b60006001826020036101000a0390508019835116818551168181178652505050505050565b6000606083905060008060005b835181101561211757603084828151811061205157fe5b602001015160f81c60f81b60f81c60ff161015801561208d5750603984828151811061207957fe5b602001015160f81c60f81b60f81c60ff1611155b156120df5781156120b05760008614156120a657612117565b8580600190039650505b600a8302925060308482815181106120c457fe5b602001015160f81c60f81b60f81c60ff16038301925061210a565b602e8482815181106120ed57fe5b602001015160f81c60f81b60f81c60ff16141561210957600191505b5b808060010191505061203a565b50600085111561212a5784600a0a820291505b81935050505092915050565b600080612156731d3b2638a7cc9f2cb3d298a3da7a90b67e5506ed611e4f565b11156121f857731d3b2638a7cc9f2cb3d298a3da7a90b67e5506ed600160006101000a81548173ffffffffffffffffffffffffffffffffffffffff021916908373ffffffffffffffffffffffffffffffffffffffff1602179055506121ef6040518060400160405280600b81526020017f6574685f6d61696e6e657400000000000000000000000000000000000000000081525061268d565b6001905061268a565b600061221773c03a2615d5efaf5f49f60b7bb6583eaec212fdf1611e4f565b11156122b95773c03a2615d5efaf5f49f60b7bb6583eaec212fdf1600160006101000a81548173ffffffffffffffffffffffffffffffffffffffff021916908373ffffffffffffffffffffffffffffffffffffffff1602179055506122b06040518060400160405280600c81526020017f6574685f726f707374656e33000000000000000000000000000000000000000081525061268d565b6001905061268a565b60006122d873b7a07bcf2ba2f2703b24c0691b5278999c59ac7e611e4f565b111561237a5773b7a07bcf2ba2f2703b24c0691b5278999c59ac7e600160006101000a81548173ffffffffffffffffffffffffffffffffffffffff021916908373ffffffffffffffffffffffffffffffffffffffff1602179055506123716040518060400160405280600981526020017f6574685f6b6f76616e000000000000000000000000000000000000000000000081525061268d565b6001905061268a565b600061239973146500cfd35b22e4a392fe0adc06de1a1368ed48611e4f565b111561243b5773146500cfd35b22e4a392fe0adc06de1a1368ed48600160006101000a81548173ffffffffffffffffffffffffffffffffffffffff021916908373ffffffffffffffffffffffffffffffffffffffff1602179055506124326040518060400160405280600b81526020017f6574685f72696e6b65627900000000000000000000000000000000000000000081525061268d565b6001905061268a565b600061245a73a2998efd205fb9d4b4963afb70778d6354ad3a41611e4f565b11156124fc5773a2998efd205fb9d4b4963afb70778d6354ad3a41600160006101000a81548173ffffffffffffffffffffffffffffffffffffffff021916908373ffffffffffffffffffffffffffffffffffffffff1602179055506124f36040518060400160405280600a81526020017f6574685f676f65726c690000000000000000000000000000000000000000000081525061268d565b6001905061268a565b600061251b736f485c8bf6fc43ea212e93bbf8ce046c7f1cb475611e4f565b111561257f57736f485c8bf6fc43ea212e93bbf8ce046c7f1cb475600160006101000a81548173ffffffffffffffffffffffffffffffffffffffff021916908373ffffffffffffffffffffffffffffffffffffffff1602179055506001905061268a565b600061259e7320e12a1f859b3feae5fb2a0a32c18f5a65555bbf611e4f565b1115612602577320e12a1f859b3feae5fb2a0a32c18f5a65555bbf600160006101000a81548173ffffffffffffffffffffffffffffffffffffffff021916908373ffffffffffffffffffffffffffffffffffffffff1602179055506001905061268a565b60006126217351efaf4c8b3c9afbd5ab9f4bbc82784ab6ef8faa611e4f565b1115612685577351efaf4c8b3c9afbd5ab9f4bbc82784ab6ef8faa600160006101000a81548173ffffffffffffffffffffffffffffffffffffffff021916908373ffffffffffffffffffffffffffffffffffffffff1602179055506001905061268a565b600090505b90565b80600290805190602001906126a39291906126c1565b5050565b604051806040016040528060008152602001600081525090565b828054600181600116156101000203166002900490600052602060002090601f016020900481019282601f1061270257805160ff1916838001178555612730565b82800160010185558215612730579182015b8281111561272f578251825591602001919060010190612714565b5b50905061273d9190612741565b5090565b5b8082111561275a576000816000905550600101612742565b509056fe50726f7661626c65207175657279207761732073656e742c207374616e64696e6720627920666f722074686520616e737765722e2e43616c6c6261636b2063616c6c656420776974682074686520666f6c6c6f77696e6720646174613a2050726f7661626c6520717565727920776173204e4f542073656e742c20706c656173652061646420736f6d652045544820746f20636f76657220666f722074686520717565727920666565a2646970667358221220ee5a3812a2b8dda53ada4d1f29a24ff9223abe8ec35fb4a45508cf3f05566d5c64736f6c634300060c0033",
  "immutableReferences": {},
  "source": "// SPDX-License-Identifier: MIT\npragma solidity 0.6.12;\n\nimport \"./lib/provable.sol\";\nimport \"./lib/strings.sol\";\n\ncontract Adder is usingProvable {\n    using strings for *;\n\n    // Maps input integers to predictions.\n    // (keccak256 hash of (x, y) => prediction)\n    mapping (bytes => uint) public predictions;\n\n    string apiBaseUrl;\n\n    event Prediction(uint _value);\n    event LogProvableQuery(string _message);\n\n    constructor(string memory _apiBaseUrl) public {\n        apiBaseUrl = _apiBaseUrl;\n    }\n\n    // Request the contract to fetch a update the predictions mapping\n    // with a new entry adding the given parameters.\n    function requestPrediction(uint _x, uint _y) public payable {\n        if (provable_getPrice(\"URL\") > address(this).balance) {\n            emit LogProvableQuery(\"Provable query was NOT sent, please add some ETH to cover for the query fee\");\n        } else {\n            string memory path = strConcat(apiBaseUrl, \"/add/\", uint2str(_x), \"/\", uint2str(_y));\n            string memory jsonHelper = strConcat(\"json(\", path, \").stringResult\");\n            provable_query(\"URL\", jsonHelper);\n            emit LogProvableQuery(\"Provable query was sent, standing by for the answer..\");\n        }\n    }\n\n    // Retrieve a prediction from the mapping.\n    // Returns -1 if entry does not exist.\n    function getPrediction(uint _x, uint _y) public returns (int) {\n        uint xyPrediction = predictions[abi.encode(_x, _y)];\n        uint yxPrediction = predictions[abi.encode(_y, _x)];\n\n        if (xyPrediction != 0) {\n            return int(xyPrediction);\n        } else if (yxPrediction != 0) {\n            return int(yxPrediction);\n        } else {\n            return -1;\n        }\n    }\n\n    // Callback utilised to feed new predictions into the mapping.\n    function __callback(bytes32 _myid, string memory _result) public override {\n        require(msg.sender == provable_cbAddress());\n        emit LogProvableQuery(strConcat(\"Callback called with the following data: \", _result));\n\n        // Parse values from result\n        strings.slice memory s = _result.toSlice();\n        strings.slice memory delim = \",\".toSlice();\n        uint[] memory toks = new uint[](s.count(delim));\n        for (uint i = 0; i < toks.length; i++) {\n            toks[i] = parseInt(s.split(delim).toString());\n        }\n\n        // Store into mapping\n        predictions[abi.encode(toks[0], toks[1])] = toks[2];\n        predictions[abi.encode(toks[1], toks[0])] = toks[2];\n        emit Prediction(toks[2]);\n    }\n}\n",
  "sourcePath": "/Users/alexking/Projects/Personal/kilburn-coding-challenges/challenge-3-eleven/src/eth/contracts/Adder.sol",
  "compiler": {
    "name": "solc",
    "version": "0.6.12+commit.27d51765.Emscripten.clang"
  },
  "schemaVersion": "3.2.3",
  "updatedAt": "2020-08-15T21:56:18.006Z",
  "networkType": "ethereum",
  "devdoc": {
    "kind": "dev",
    "methods": {
      "__callback(bytes32,string)": {
        "details": "The following `__callback` functions are just placeholders ideally      meant to be defined in child contract when proofs are used.      The function bodies simply silence compiler warnings."
      }
    },
    "version": 1
  },
  "userdoc": {
    "kind": "user",
    "methods": {},
    "version": 1
  }
}